{
  "_format": "hh-sol-artifact-1",
  "contractName": "LNS",
  "sourceName": "contracts/LNS.sol",
  "abi": [
    {
      "inputs": [
        {
          "internalType": "string",
          "name": "_tld",
          "type": "string"
        }
      ],
      "stateMutability": "payable",
      "type": "constructor"
    },
    {
      "inputs": [],
      "name": "AlreadyRegistered",
      "type": "error"
    },
    {
      "inputs": [
        {
          "internalType": "string",
          "name": "name",
          "type": "string"
        }
      ],
      "name": "InvalidName",
      "type": "error"
    },
    {
      "inputs": [],
      "name": "Unauthorized",
      "type": "error"
    },
    {
      "anonymous": false,
      "inputs": [
        {
          "indexed": true,
          "internalType": "address",
          "name": "owner",
          "type": "address"
        },
        {
          "indexed": true,
          "internalType": "address",
          "name": "approved",
          "type": "address"
        },
        {
          "indexed": true,
          "internalType": "uint256",
          "name": "tokenId",
          "type": "uint256"
        }
      ],
      "name": "Approval",
      "type": "event"
    },
    {
      "anonymous": false,
      "inputs": [
        {
          "indexed": true,
          "internalType": "address",
          "name": "owner",
          "type": "address"
        },
        {
          "indexed": true,
          "internalType": "address",
          "name": "operator",
          "type": "address"
        },
        {
          "indexed": false,
          "internalType": "bool",
          "name": "approved",
          "type": "bool"
        }
      ],
      "name": "ApprovalForAll",
      "type": "event"
    },
    {
      "anonymous": false,
      "inputs": [
        {
          "indexed": true,
          "internalType": "address",
          "name": "from",
          "type": "address"
        },
        {
          "indexed": true,
          "internalType": "address",
          "name": "to",
          "type": "address"
        },
        {
          "indexed": true,
          "internalType": "uint256",
          "name": "tokenId",
          "type": "uint256"
        }
      ],
      "name": "Transfer",
      "type": "event"
    },
    {
      "inputs": [],
      "name": "admin",
      "outputs": [
        {
          "internalType": "address payable",
          "name": "",
          "type": "address"
        }
      ],
      "stateMutability": "view",
      "type": "function"
    },
    {
      "inputs": [
        {
          "internalType": "address",
          "name": "to",
          "type": "address"
        },
        {
          "internalType": "uint256",
          "name": "tokenId",
          "type": "uint256"
        }
      ],
      "name": "approve",
      "outputs": [],
      "stateMutability": "nonpayable",
      "type": "function"
    },
    {
      "inputs": [
        {
          "internalType": "address",
          "name": "owner",
          "type": "address"
        }
      ],
      "name": "balanceOf",
      "outputs": [
        {
          "internalType": "uint256",
          "name": "",
          "type": "uint256"
        }
      ],
      "stateMutability": "view",
      "type": "function"
    },
    {
      "inputs": [
        {
          "internalType": "string",
          "name": "",
          "type": "string"
        }
      ],
      "name": "domains",
      "outputs": [
        {
          "internalType": "address",
          "name": "",
          "type": "address"
        }
      ],
      "stateMutability": "view",
      "type": "function"
    },
    {
      "inputs": [
        {
          "internalType": "string",
          "name": "name",
          "type": "string"
        }
      ],
      "name": "getAddress",
      "outputs": [
        {
          "internalType": "address",
          "name": "",
          "type": "address"
        }
      ],
      "stateMutability": "view",
      "type": "function"
    },
    {
      "inputs": [],
      "name": "getAllNames",
      "outputs": [
        {
          "internalType": "string[]",
          "name": "",
          "type": "string[]"
        }
      ],
      "stateMutability": "view",
      "type": "function"
    },
    {
      "inputs": [
        {
          "internalType": "uint256",
          "name": "tokenId",
          "type": "uint256"
        }
      ],
      "name": "getApproved",
      "outputs": [
        {
          "internalType": "address",
          "name": "",
          "type": "address"
        }
      ],
      "stateMutability": "view",
      "type": "function"
    },
    {
      "inputs": [
        {
          "internalType": "string",
          "name": "name",
          "type": "string"
        }
      ],
      "name": "getRecord",
      "outputs": [
        {
          "internalType": "string",
          "name": "",
          "type": "string"
        }
      ],
      "stateMutability": "view",
      "type": "function"
    },
    {
      "inputs": [],
      "name": "isAdmin",
      "outputs": [
        {
          "internalType": "bool",
          "name": "",
          "type": "bool"
        }
      ],
      "stateMutability": "view",
      "type": "function"
    },
    {
      "inputs": [
        {
          "internalType": "address",
          "name": "owner",
          "type": "address"
        },
        {
          "internalType": "address",
          "name": "operator",
          "type": "address"
        }
      ],
      "name": "isApprovedForAll",
      "outputs": [
        {
          "internalType": "bool",
          "name": "",
          "type": "bool"
        }
      ],
      "stateMutability": "view",
      "type": "function"
    },
    {
      "inputs": [],
      "name": "name",
      "outputs": [
        {
          "internalType": "string",
          "name": "",
          "type": "string"
        }
      ],
      "stateMutability": "view",
      "type": "function"
    },
    {
      "inputs": [
        {
          "internalType": "uint256",
          "name": "",
          "type": "uint256"
        }
      ],
      "name": "names",
      "outputs": [
        {
          "internalType": "string",
          "name": "",
          "type": "string"
        }
      ],
      "stateMutability": "view",
      "type": "function"
    },
    {
      "inputs": [
        {
          "internalType": "uint256",
          "name": "tokenId",
          "type": "uint256"
        }
      ],
      "name": "ownerOf",
      "outputs": [
        {
          "internalType": "address",
          "name": "",
          "type": "address"
        }
      ],
      "stateMutability": "view",
      "type": "function"
    },
    {
      "inputs": [
        {
          "internalType": "string",
          "name": "name",
          "type": "string"
        }
      ],
      "name": "price",
      "outputs": [
        {
          "internalType": "uint256",
          "name": "",
          "type": "uint256"
        }
      ],
      "stateMutability": "pure",
      "type": "function"
    },
    {
      "inputs": [
        {
          "internalType": "string",
          "name": "",
          "type": "string"
        }
      ],
      "name": "records",
      "outputs": [
        {
          "internalType": "string",
          "name": "",
          "type": "string"
        }
      ],
      "stateMutability": "view",
      "type": "function"
    },
    {
      "inputs": [
        {
          "internalType": "string",
          "name": "name",
          "type": "string"
        }
      ],
      "name": "register",
      "outputs": [],
      "stateMutability": "payable",
      "type": "function"
    },
    {
      "inputs": [
        {
          "internalType": "address",
          "name": "from",
          "type": "address"
        },
        {
          "internalType": "address",
          "name": "to",
          "type": "address"
        },
        {
          "internalType": "uint256",
          "name": "tokenId",
          "type": "uint256"
        }
      ],
      "name": "safeTransferFrom",
      "outputs": [],
      "stateMutability": "nonpayable",
      "type": "function"
    },
    {
      "inputs": [
        {
          "internalType": "address",
          "name": "from",
          "type": "address"
        },
        {
          "internalType": "address",
          "name": "to",
          "type": "address"
        },
        {
          "internalType": "uint256",
          "name": "tokenId",
          "type": "uint256"
        },
        {
          "internalType": "bytes",
          "name": "_data",
          "type": "bytes"
        }
      ],
      "name": "safeTransferFrom",
      "outputs": [],
      "stateMutability": "nonpayable",
      "type": "function"
    },
    {
      "inputs": [
        {
          "internalType": "address",
          "name": "operator",
          "type": "address"
        },
        {
          "internalType": "bool",
          "name": "approved",
          "type": "bool"
        }
      ],
      "name": "setApprovalForAll",
      "outputs": [],
      "stateMutability": "nonpayable",
      "type": "function"
    },
    {
      "inputs": [
        {
          "internalType": "string",
          "name": "name",
          "type": "string"
        },
        {
          "internalType": "string",
          "name": "record",
          "type": "string"
        }
      ],
      "name": "setRecord",
      "outputs": [],
      "stateMutability": "nonpayable",
      "type": "function"
    },
    {
      "inputs": [
        {
          "internalType": "bytes4",
          "name": "interfaceId",
          "type": "bytes4"
        }
      ],
      "name": "supportsInterface",
      "outputs": [
        {
          "internalType": "bool",
          "name": "",
          "type": "bool"
        }
      ],
      "stateMutability": "view",
      "type": "function"
    },
    {
      "inputs": [],
      "name": "symbol",
      "outputs": [
        {
          "internalType": "string",
          "name": "",
          "type": "string"
        }
      ],
      "stateMutability": "view",
      "type": "function"
    },
    {
      "inputs": [],
      "name": "tld",
      "outputs": [
        {
          "internalType": "string",
          "name": "",
          "type": "string"
        }
      ],
      "stateMutability": "view",
      "type": "function"
    },
    {
      "inputs": [
        {
          "internalType": "uint256",
          "name": "tokenId",
          "type": "uint256"
        }
      ],
      "name": "tokenURI",
      "outputs": [
        {
          "internalType": "string",
          "name": "",
          "type": "string"
        }
      ],
      "stateMutability": "view",
      "type": "function"
    },
    {
      "inputs": [
        {
          "internalType": "address",
          "name": "from",
          "type": "address"
        },
        {
          "internalType": "address",
          "name": "to",
          "type": "address"
        },
        {
          "internalType": "uint256",
          "name": "tokenId",
          "type": "uint256"
        }
      ],
      "name": "transferFrom",
      "outputs": [],
      "stateMutability": "nonpayable",
      "type": "function"
    },
    {
      "inputs": [
        {
          "internalType": "string",
          "name": "name",
          "type": "string"
        }
      ],
      "name": "valid",
      "outputs": [
        {
          "internalType": "bool",
          "name": "",
          "type": "bool"
        }
      ],
      "stateMutability": "pure",
      "type": "function"
    },
    {
      "inputs": [],
      "name": "withdraw",
      "outputs": [],
      "stateMutability": "nonpayable",
      "type": "function"
    }
  ],
  "bytecode": "0x6080604052604051806108a0016040528061086b815260200162004d0761086b9139600c9080519060200190620000389291906200015f565b50604051620055723803806200557283398181016040528101906200005e9190620003ac565b6040518060400160405280601381526020017f4c6176697368204e616d652053657276696365000000000000000000000000008152506040518060400160405280600381526020017f4c4e5300000000000000000000000000000000000000000000000000000000008152508160009080519060200190620000e29291906200015f565b508060019080519060200190620000fb9291906200015f565b5050508060089080519060200190620001169291906200015f565b5033600d60006101000a81548173ffffffffffffffffffffffffffffffffffffffff021916908373ffffffffffffffffffffffffffffffffffffffff1602179055505062000462565b8280546200016d906200042c565b90600052602060002090601f016020900481019282620001915760008555620001dd565b82601f10620001ac57805160ff1916838001178555620001dd565b82800160010185558215620001dd579182015b82811115620001dc578251825591602001919060010190620001bf565b5b509050620001ec9190620001f0565b5090565b5b808211156200020b576000816000905550600101620001f1565b5090565b6000604051905090565b600080fd5b600080fd5b600080fd5b600080fd5b6000601f19601f8301169050919050565b7f4e487b7100000000000000000000000000000000000000000000000000000000600052604160045260246000fd5b62000278826200022d565b810181811067ffffffffffffffff821117156200029a57620002996200023e565b5b80604052505050565b6000620002af6200020f565b9050620002bd82826200026d565b919050565b600067ffffffffffffffff821115620002e057620002df6200023e565b5b620002eb826200022d565b9050602081019050919050565b60005b8381101562000318578082015181840152602081019050620002fb565b8381111562000328576000848401525b50505050565b6000620003456200033f84620002c2565b620002a3565b90508281526020810184848401111562000364576200036362000228565b5b62000371848285620002f8565b509392505050565b600082601f83011262000391576200039062000223565b5b8151620003a38482602086016200032e565b91505092915050565b600060208284031215620003c557620003c462000219565b5b600082015167ffffffffffffffff811115620003e657620003e56200021e565b5b620003f48482850162000379565b91505092915050565b7f4e487b7100000000000000000000000000000000000000000000000000000000600052602260045260246000fd5b600060028204905060018216806200044557607f821691505b602082108114156200045c576200045b620003fd565b5b50919050565b61489580620004726000396000f3fe60806040526004361061019c5760003560e01c806370a08231116100ec578063c1880a981161008a578063f2c298be11610064578063f2c298be14610636578063f851a44014610652578063fb825e5f1461067d578063fe2c6198146106a85761019c565b8063c1880a9814610593578063c87b56dd146105bc578063e985e9c5146105f95761019c565b8063a22cb465116100c6578063a22cb465146104d9578063b6db75a014610502578063b88d4fde1461052d578063bf40fac1146105565761019c565b806370a082311461043457806395d89b41146104715780639791c0971461049c5761019c565b8063264492351161015957806342842e0e1161013357806342842e0e146103545780634622ab031461037d578063541e771d146103ba5780636352211e146103f75761019c565b806326449235146102d55780632d551432146103125780633ccfd60b1461033d5761019c565b806301ffc9a7146101a157806306fdde03146101de578063081812fc14610209578063095ea7b31461024657806311dd88451461026f57806323b872dd146102ac575b600080fd5b3480156101ad57600080fd5b506101c860048036038101906101c39190612ce6565b6106e5565b6040516101d59190612d2e565b60405180910390f35b3480156101ea57600080fd5b506101f36107c7565b6040516102009190612de2565b60405180910390f35b34801561021557600080fd5b50610230600480360381019061022b9190612e3a565b610859565b60405161023d9190612ea8565b60405180910390f35b34801561025257600080fd5b5061026d60048036038101906102689190612eef565b6108de565b005b34801561027b57600080fd5b5061029660048036038101906102919190612f94565b6109f6565b6040516102a39190612de2565b60405180910390f35b3480156102b857600080fd5b506102d360048036038101906102ce9190612fe1565b610aa9565b005b3480156102e157600080fd5b506102fc60048036038101906102f79190613164565b610b09565b6040516103099190612ea8565b60405180910390f35b34801561031e57600080fd5b50610327610b52565b6040516103349190612de2565b60405180910390f35b34801561034957600080fd5b50610352610be0565b005b34801561036057600080fd5b5061037b60048036038101906103769190612fe1565b610ca6565b005b34801561038957600080fd5b506103a4600480360381019061039f9190612e3a565b610cc6565b6040516103b19190612de2565b60405180910390f35b3480156103c657600080fd5b506103e160048036038101906103dc9190613164565b610d66565b6040516103ee9190612de2565b60405180910390f35b34801561040357600080fd5b5061041e60048036038101906104199190612e3a565b610e1c565b60405161042b9190612ea8565b60405180910390f35b34801561044057600080fd5b5061045b600480360381019061045691906131ad565b610ece565b60405161046891906131e9565b60405180910390f35b34801561047d57600080fd5b50610486610f86565b6040516104939190612de2565b60405180910390f35b3480156104a857600080fd5b506104c360048036038101906104be9190612f94565b611018565b6040516104d09190612d2e565b60405180910390f35b3480156104e557600080fd5b5061050060048036038101906104fb9190613230565b6110cc565b005b34801561050e57600080fd5b506105176110e2565b6040516105249190612d2e565b60405180910390f35b34801561053957600080fd5b50610554600480360381019061054f9190613311565b61113a565b005b34801561056257600080fd5b5061057d60048036038101906105789190612f94565b61119c565b60405161058a9190612ea8565b60405180910390f35b34801561059f57600080fd5b506105ba60048036038101906105b59190613394565b6111e7565b005b3480156105c857600080fd5b506105e360048036038101906105de9190612e3a565b6112c2565b6040516105f09190612de2565b60405180910390f35b34801561060557600080fd5b50610620600480360381019061061b9190613415565b611414565b60405161062d9190612d2e565b60405180910390f35b610650600480360381019061064b9190612f94565b6114a8565b005b34801561065e57600080fd5b506106676117fb565b6040516106749190613476565b60405180910390f35b34801561068957600080fd5b50610692611821565b60405161069f919061359d565b60405180910390f35b3480156106b457600080fd5b506106cf60048036038101906106ca9190612f94565b611967565b6040516106dc91906131e9565b60405180910390f35b60007f80ac58cd000000000000000000000000000000000000000000000000000000007bffffffffffffffffffffffffffffffffffffffffffffffffffffffff1916827bffffffffffffffffffffffffffffffffffffffffffffffffffffffff191614806107b057507f5b5e139f000000000000000000000000000000000000000000000000000000007bffffffffffffffffffffffffffffffffffffffffffffffffffffffff1916827bffffffffffffffffffffffffffffffffffffffffffffffffffffffff1916145b806107c057506107bf826119fd565b5b9050919050565b6060600080546107d6906135ee565b80601f0160208091040260200160405190810160405280929190818152602001828054610802906135ee565b801561084f5780601f106108245761010080835404028352916020019161084f565b820191906000526020600020905b81548152906001019060200180831161083257829003601f168201915b5050505050905090565b600061086482611a67565b6108a3576040517f08c379a000000000000000000000000000000000000000000000000000000000815260040161089a90613692565b60405180910390fd5b6004600083815260200190815260200160002060009054906101000a900473ffffffffffffffffffffffffffffffffffffffff169050919050565b60006108e982610e1c565b90508073ffffffffffffffffffffffffffffffffffffffff168373ffffffffffffffffffffffffffffffffffffffff16141561095a576040517f08c379a000000000000000000000000000000000000000000000000000000000815260040161095190613724565b60405180910390fd5b8073ffffffffffffffffffffffffffffffffffffffff16610979611ad3565b73ffffffffffffffffffffffffffffffffffffffff1614806109a857506109a7816109a2611ad3565b611414565b5b6109e7576040517f08c379a00000000000000000000000000000000000000000000000000000000081526004016109de906137b6565b60405180910390fd5b6109f18383611adb565b505050565b6060600a8383604051610a0a929190613806565b90815260200160405180910390208054610a23906135ee565b80601f0160208091040260200160405190810160405280929190818152602001828054610a4f906135ee565b8015610a9c5780601f10610a7157610100808354040283529160200191610a9c565b820191906000526020600020905b815481529060010190602001808311610a7f57829003601f168201915b5050505050905092915050565b610aba610ab4611ad3565b82611b94565b610af9576040517f08c379a0000000000000000000000000000000000000000000000000000000008152600401610af090613891565b60405180910390fd5b610b04838383611c72565b505050565b6009818051602081018201805184825260208301602085012081835280955050505050506000915054906101000a900473ffffffffffffffffffffffffffffffffffffffff1681565b60088054610b5f906135ee565b80601f0160208091040260200160405190810160405280929190818152602001828054610b8b906135ee565b8015610bd85780601f10610bad57610100808354040283529160200191610bd8565b820191906000526020600020905b815481529060010190602001808311610bbb57829003601f168201915b505050505081565b610be86110e2565b610bf157600080fd5b600047905060003373ffffffffffffffffffffffffffffffffffffffff1682604051610c1c906138e2565b60006040518083038185875af1925050503d8060008114610c59576040519150601f19603f3d011682016040523d82523d6000602084013e610c5e565b606091505b5050905080610ca2576040517f08c379a0000000000000000000000000000000000000000000000000000000008152600401610c9990613943565b60405180910390fd5b5050565b610cc18383836040518060200160405280600081525061113a565b505050565b600b6020528060005260406000206000915090508054610ce5906135ee565b80601f0160208091040260200160405190810160405280929190818152602001828054610d11906135ee565b8015610d5e5780601f10610d3357610100808354040283529160200191610d5e565b820191906000526020600020905b815481529060010190602001808311610d4157829003601f168201915b505050505081565b600a818051602081018201805184825260208301602085012081835280955050505050506000915090508054610d9b906135ee565b80601f0160208091040260200160405190810160405280929190818152602001828054610dc7906135ee565b8015610e145780601f10610de957610100808354040283529160200191610e14565b820191906000526020600020905b815481529060010190602001808311610df757829003601f168201915b505050505081565b6000806002600084815260200190815260200160002060009054906101000a900473ffffffffffffffffffffffffffffffffffffffff169050600073ffffffffffffffffffffffffffffffffffffffff168173ffffffffffffffffffffffffffffffffffffffff161415610ec5576040517f08c379a0000000000000000000000000000000000000000000000000000000008152600401610ebc906139d5565b60405180910390fd5b80915050919050565b60008073ffffffffffffffffffffffffffffffffffffffff168273ffffffffffffffffffffffffffffffffffffffff161415610f3f576040517f08c379a0000000000000000000000000000000000000000000000000000000008152600401610f3690613a67565b60405180910390fd5b600360008373ffffffffffffffffffffffffffffffffffffffff1673ffffffffffffffffffffffffffffffffffffffff168152602001908152602001600020549050919050565b606060018054610f95906135ee565b80601f0160208091040260200160405190810160405280929190818152602001828054610fc1906135ee565b801561100e5780601f10610fe35761010080835404028352916020019161100e565b820191906000526020600020905b815481529060010190602001808311610ff157829003601f168201915b5050505050905090565b6000600361106984848080601f016020809104026020016040519081016040528093929190818152602001838380828437600081840152601f19601f82011690508083019250505050505050611ed9565b101580156110c45750600a6110c184848080601f016020809104026020016040519081016040528093929190818152602001838380828437600081840152601f19601f82011690508083019250505050505050611ed9565b11155b905092915050565b6110de6110d7611ad3565b838361208e565b5050565b6000600d60009054906101000a900473ffffffffffffffffffffffffffffffffffffffff1673ffffffffffffffffffffffffffffffffffffffff163373ffffffffffffffffffffffffffffffffffffffff1614905090565b61114b611145611ad3565b83611b94565b61118a576040517f08c379a000000000000000000000000000000000000000000000000000000000815260040161118190613891565b60405180910390fd5b611196848484846121fb565b50505050565b6000600983836040516111b0929190613806565b908152602001604051809103902060009054906101000a900473ffffffffffffffffffffffffffffffffffffffff16905092915050565b3373ffffffffffffffffffffffffffffffffffffffff1660098585604051611210929190613806565b908152602001604051809103902060009054906101000a900473ffffffffffffffffffffffffffffffffffffffff1673ffffffffffffffffffffffffffffffffffffffff161461128c576040517f82b4290000000000000000000000000000000000000000000000000000000000815260040160405180910390fd5b8181600a86866040516112a0929190613806565b908152602001604051809103902091906112bb929190612b51565b5050505050565b60606112cd82611a67565b61130c576040517f08c379a000000000000000000000000000000000000000000000000000000000815260040161130390613af9565b60405180910390fd5b600060066000848152602001908152602001600020805461132c906135ee565b80601f0160208091040260200160405190810160405280929190818152602001828054611358906135ee565b80156113a55780601f1061137a576101008083540402835291602001916113a5565b820191906000526020600020905b81548152906001019060200180831161138857829003601f168201915b5050505050905060006113b6612257565b90506000815114156113cc57819250505061140f565b6000825111156114015780826040516020016113e9929190613b4a565b6040516020818303038152906040529250505061140f565b61140a8461226e565b925050505b919050565b6000600560008473ffffffffffffffffffffffffffffffffffffffff1673ffffffffffffffffffffffffffffffffffffffff16815260200190815260200160002060008373ffffffffffffffffffffffffffffffffffffffff1673ffffffffffffffffffffffffffffffffffffffff16815260200190815260200160002060009054906101000a900460ff16905092915050565b600073ffffffffffffffffffffffffffffffffffffffff16600983836040516114d2929190613806565b908152602001604051809103902060009054906101000a900473ffffffffffffffffffffffffffffffffffffffff1673ffffffffffffffffffffffffffffffffffffffff161461154e576040517f3a81d6fc00000000000000000000000000000000000000000000000000000000815260040160405180910390fd5b6115588282611018565b61159b5781816040517f7f19f48d000000000000000000000000000000000000000000000000000000008152600401611592929190613b9b565b60405180910390fd5b60006115a78383611967565b9050803410156115ec576040517f08c379a00000000000000000000000000000000000000000000000000000000081526004016115e390613c0b565b60405180910390fd5b60008383600860405160200161160493929190613d0b565b60405160208183030381529060405290506000600c8260405160200161162b929190613d88565b604051602081830303815290604052905060006116486007612315565b9050600061169987878080601f016020809104026020016040519081016040528093929190818152602001838380828437600081840152601f19601f82011690508083019250505050505050611ed9565b905060006116a682612323565b905060006116de866116b787612484565b846040516020016116ca93929190613f33565b604051602081830303815290604052612484565b90506000816040516020016116f39190613fdc565b60405160208183030381529060405290506117256040518060600160405280603981526020016147ae603991396125fd565b61172e816125fd565b61174f6040518060600160405280603981526020016147e7603991396125fd565b6117593386612696565b61176385826126b4565b3360098b8b604051611776929190613806565b908152602001604051809103902060006101000a81548173ffffffffffffffffffffffffffffffffffffffff021916908373ffffffffffffffffffffffffffffffffffffffff1602179055508989600b600088815260200190815260200160002091906117e4929190612b51565b506117ef6007612728565b50505050505050505050565b600d60009054906101000a900473ffffffffffffffffffffffffffffffffffffffff1681565b6060600061182f6007612315565b67ffffffffffffffff81111561184857611847613039565b5b60405190808252806020026020018201604052801561187b57816020015b60608152602001906001900390816118665790505b50905060005b61188b6007612315565b81101561195f57600b600082815260200190815260200160002080546118b0906135ee565b80601f01602080910402602001604051908101604052809291908181526020018280546118dc906135ee565b80156119295780601f106118fe57610100808354040283529160200191611929565b820191906000526020600020905b81548152906001019060200180831161190c57829003601f168201915b505050505082828151811061194157611940613ffe565b5b602002602001018190525080806119579061405c565b915050611881565b508091505090565b6000806119b784848080601f016020809104026020016040519081016040528093929190818152602001838380828437600081840152601f19601f82011690508083019250505050505050611ed9565b905060038114156119d25766b1a2bc2ec500009150506119f7565b60048114156119eb57666a94d74f4300009150506119f7565b662386f26fc100009150505b92915050565b60007f01ffc9a7000000000000000000000000000000000000000000000000000000007bffffffffffffffffffffffffffffffffffffffffffffffffffffffff1916827bffffffffffffffffffffffffffffffffffffffffffffffffffffffff1916149050919050565b60008073ffffffffffffffffffffffffffffffffffffffff166002600084815260200190815260200160002060009054906101000a900473ffffffffffffffffffffffffffffffffffffffff1673ffffffffffffffffffffffffffffffffffffffff1614159050919050565b600033905090565b816004600083815260200190815260200160002060006101000a81548173ffffffffffffffffffffffffffffffffffffffff021916908373ffffffffffffffffffffffffffffffffffffffff160217905550808273ffffffffffffffffffffffffffffffffffffffff16611b4e83610e1c565b73ffffffffffffffffffffffffffffffffffffffff167f8c5be1e5ebec7d5bd14f71427d1e84f3dd0314c0f7b2291e5b200ac8c7c3b92560405160405180910390a45050565b6000611b9f82611a67565b611bde576040517f08c379a0000000000000000000000000000000000000000000000000000000008152600401611bd590614117565b60405180910390fd5b6000611be983610e1c565b90508073ffffffffffffffffffffffffffffffffffffffff168473ffffffffffffffffffffffffffffffffffffffff161480611c5857508373ffffffffffffffffffffffffffffffffffffffff16611c4084610859565b73ffffffffffffffffffffffffffffffffffffffff16145b80611c695750611c688185611414565b5b91505092915050565b8273ffffffffffffffffffffffffffffffffffffffff16611c9282610e1c565b73ffffffffffffffffffffffffffffffffffffffff1614611ce8576040517f08c379a0000000000000000000000000000000000000000000000000000000008152600401611cdf906141a9565b60405180910390fd5b600073ffffffffffffffffffffffffffffffffffffffff168273ffffffffffffffffffffffffffffffffffffffff161415611d58576040517f08c379a0000000000000000000000000000000000000000000000000000000008152600401611d4f9061423b565b60405180910390fd5b611d6383838361273e565b611d6e600082611adb565b6001600360008573ffffffffffffffffffffffffffffffffffffffff1673ffffffffffffffffffffffffffffffffffffffff1681526020019081526020016000206000828254611dbe919061425b565b925050819055506001600360008473ffffffffffffffffffffffffffffffffffffffff1673ffffffffffffffffffffffffffffffffffffffff1681526020019081526020016000206000828254611e15919061428f565b92505081905550816002600083815260200190815260200160002060006101000a81548173ffffffffffffffffffffffffffffffffffffffff021916908373ffffffffffffffffffffffffffffffffffffffff160217905550808273ffffffffffffffffffffffffffffffffffffffff168473ffffffffffffffffffffffffffffffffffffffff167fddf252ad1be2c89b69c2b068fc378daa952ba7f163c4a11628f55a4df523b3ef60405160405180910390a4611ed4838383612743565b505050565b60008060008084519050600092505b80821015612083576000858381518110611f0557611f04613ffe565b5b602001015160f81c60f81b9050608060f81b817effffffffffffffffffffffffffffffffffffffffffffffffffffffffffffff19161015611f5457600183611f4d919061428f565b925061206f565b60e060f81b817effffffffffffffffffffffffffffffffffffffffffffffffffffffffffffff19161015611f9657600283611f8f919061428f565b925061206e565b60f060f81b817effffffffffffffffffffffffffffffffffffffffffffffffffffffffffffff19161015611fd857600383611fd1919061428f565b925061206d565b60f8801b817effffffffffffffffffffffffffffffffffffffffffffffffffffffffffffff1916101561201957600483612012919061428f565b925061206c565b60fc60f81b817effffffffffffffffffffffffffffffffffffffffffffffffffffffffffffff1916101561205b57600583612054919061428f565b925061206b565b600683612068919061428f565b92505b5b5b5b5b50828061207b9061405c565b935050611ee8565b829350505050919050565b8173ffffffffffffffffffffffffffffffffffffffff168373ffffffffffffffffffffffffffffffffffffffff1614156120fd576040517f08c379a00000000000000000000000000000000000000000000000000000000081526004016120f490614331565b60405180910390fd5b80600560008573ffffffffffffffffffffffffffffffffffffffff1673ffffffffffffffffffffffffffffffffffffffff16815260200190815260200160002060008473ffffffffffffffffffffffffffffffffffffffff1673ffffffffffffffffffffffffffffffffffffffff16815260200190815260200160002060006101000a81548160ff0219169083151502179055508173ffffffffffffffffffffffffffffffffffffffff168373ffffffffffffffffffffffffffffffffffffffff167f17307eab39ab6107e8899845ad3d59bd9653f200f220920489ca2b5937696c31836040516121ee9190612d2e565b60405180910390a3505050565b612206848484611c72565b61221284848484612748565b612251576040517f08c379a0000000000000000000000000000000000000000000000000000000008152600401612248906143c3565b60405180910390fd5b50505050565b606060405180602001604052806000815250905090565b606061227982611a67565b6122b8576040517f08c379a00000000000000000000000000000000000000000000000000000000081526004016122af90614455565b60405180910390fd5b60006122c2612257565b905060008151116122e2576040518060200160405280600081525061230d565b806122ec84612323565b6040516020016122fd929190613b4a565b6040516020818303038152906040525b915050919050565b600081600001549050919050565b6060600082141561236b576040518060400160405280600181526020017f3000000000000000000000000000000000000000000000000000000000000000815250905061247f565b600082905060005b6000821461239d5780806123869061405c565b915050600a8261239691906144a4565b9150612373565b60008167ffffffffffffffff8111156123b9576123b8613039565b5b6040519080825280601f01601f1916602001820160405280156123eb5781602001600182028036833780820191505090505b5090505b6000851461247857600182612404919061425b565b9150600a8561241391906144d5565b603061241f919061428f565b60f81b81838151811061243557612434613ffe565b5b60200101907effffffffffffffffffffffffffffffffffffffffffffffffffffffffffffff1916908160001a905350600a8561247191906144a4565b94506123ef565b8093505050505b919050565b60606000825114156124a7576040518060200160405280600081525090506125f8565b600060405180606001604052806040815260200161482060409139905060006003600285516124d6919061428f565b6124e091906144a4565b60046124ec9190614506565b905060006020826124fd919061428f565b67ffffffffffffffff81111561251657612515613039565b5b6040519080825280601f01601f1916602001820160405280156125485781602001600182028036833780820191505090505b509050818152600183018586518101602084015b818310156125b7576003830192508251603f8160121c168501518253600182019150603f81600c1c168501518253600182019150603f8160061c168501518253600182019150603f811685015182536001820191505061255c565b6003895106600181146125d157600281146125e1576125ec565b613d3d60f01b60028303526125ec565b603d60f81b60018303525b50505050508093505050505b919050565b612693816040516024016126119190612de2565b6040516020818303038152906040527f41304fac000000000000000000000000000000000000000000000000000000007bffffffffffffffffffffffffffffffffffffffffffffffffffffffff19166020820180517bffffffffffffffffffffffffffffffffffffffffffffffffffffffff83818316178352505050506128d0565b50565b6126b08282604051806020016040528060008152506128f9565b5050565b6126bd82611a67565b6126fc576040517f08c379a00000000000000000000000000000000000000000000000000000000081526004016126f3906145d2565b60405180910390fd5b80600660008481526020019081526020016000209080519060200190612723929190612bd7565b505050565b6001816000016000828254019250508190555050565b505050565b505050565b60006127698473ffffffffffffffffffffffffffffffffffffffff16612954565b156128c3578373ffffffffffffffffffffffffffffffffffffffff1663150b7a02612792611ad3565b8786866040518563ffffffff1660e01b81526004016127b49493929190614647565b6020604051808303816000875af19250505080156127f057506040513d601f19601f820116820180604052508101906127ed91906146a8565b60015b612873573d8060008114612820576040519150601f19603f3d011682016040523d82523d6000602084013e612825565b606091505b5060008151141561286b576040517f08c379a0000000000000000000000000000000000000000000000000000000008152600401612862906143c3565b60405180910390fd5b805181602001fd5b63150b7a0260e01b7bffffffffffffffffffffffffffffffffffffffffffffffffffffffff1916817bffffffffffffffffffffffffffffffffffffffffffffffffffffffff1916149150506128c8565b600190505b949350505050565b60008151905060006a636f6e736f6c652e6c6f679050602083016000808483855afa5050505050565b6129038383612977565b6129106000848484612748565b61294f576040517f08c379a0000000000000000000000000000000000000000000000000000000008152600401612946906143c3565b60405180910390fd5b505050565b6000808273ffffffffffffffffffffffffffffffffffffffff163b119050919050565b600073ffffffffffffffffffffffffffffffffffffffff168273ffffffffffffffffffffffffffffffffffffffff1614156129e7576040517f08c379a00000000000000000000000000000000000000000000000000000000081526004016129de90614721565b60405180910390fd5b6129f081611a67565b15612a30576040517f08c379a0000000000000000000000000000000000000000000000000000000008152600401612a279061478d565b60405180910390fd5b612a3c6000838361273e565b6001600360008473ffffffffffffffffffffffffffffffffffffffff1673ffffffffffffffffffffffffffffffffffffffff1681526020019081526020016000206000828254612a8c919061428f565b92505081905550816002600083815260200190815260200160002060006101000a81548173ffffffffffffffffffffffffffffffffffffffff021916908373ffffffffffffffffffffffffffffffffffffffff160217905550808273ffffffffffffffffffffffffffffffffffffffff16600073ffffffffffffffffffffffffffffffffffffffff167fddf252ad1be2c89b69c2b068fc378daa952ba7f163c4a11628f55a4df523b3ef60405160405180910390a4612b4d60008383612743565b5050565b828054612b5d906135ee565b90600052602060002090601f016020900481019282612b7f5760008555612bc6565b82601f10612b9857803560ff1916838001178555612bc6565b82800160010185558215612bc6579182015b82811115612bc5578235825591602001919060010190612baa565b5b509050612bd39190612c5d565b5090565b828054612be3906135ee565b90600052602060002090601f016020900481019282612c055760008555612c4c565b82601f10612c1e57805160ff1916838001178555612c4c565b82800160010185558215612c4c579182015b82811115612c4b578251825591602001919060010190612c30565b5b509050612c599190612c5d565b5090565b5b80821115612c76576000816000905550600101612c5e565b5090565b6000604051905090565b600080fd5b600080fd5b60007fffffffff0000000000000000000000000000000000000000000000000000000082169050919050565b612cc381612c8e565b8114612cce57600080fd5b50565b600081359050612ce081612cba565b92915050565b600060208284031215612cfc57612cfb612c84565b5b6000612d0a84828501612cd1565b91505092915050565b60008115159050919050565b612d2881612d13565b82525050565b6000602082019050612d436000830184612d1f565b92915050565b600081519050919050565b600082825260208201905092915050565b60005b83811015612d83578082015181840152602081019050612d68565b83811115612d92576000848401525b50505050565b6000601f19601f8301169050919050565b6000612db482612d49565b612dbe8185612d54565b9350612dce818560208601612d65565b612dd781612d98565b840191505092915050565b60006020820190508181036000830152612dfc8184612da9565b905092915050565b6000819050919050565b612e1781612e04565b8114612e2257600080fd5b50565b600081359050612e3481612e0e565b92915050565b600060208284031215612e5057612e4f612c84565b5b6000612e5e84828501612e25565b91505092915050565b600073ffffffffffffffffffffffffffffffffffffffff82169050919050565b6000612e9282612e67565b9050919050565b612ea281612e87565b82525050565b6000602082019050612ebd6000830184612e99565b92915050565b612ecc81612e87565b8114612ed757600080fd5b50565b600081359050612ee981612ec3565b92915050565b60008060408385031215612f0657612f05612c84565b5b6000612f1485828601612eda565b9250506020612f2585828601612e25565b9150509250929050565b600080fd5b600080fd5b600080fd5b60008083601f840112612f5457612f53612f2f565b5b8235905067ffffffffffffffff811115612f7157612f70612f34565b5b602083019150836001820283011115612f8d57612f8c612f39565b5b9250929050565b60008060208385031215612fab57612faa612c84565b5b600083013567ffffffffffffffff811115612fc957612fc8612c89565b5b612fd585828601612f3e565b92509250509250929050565b600080600060608486031215612ffa57612ff9612c84565b5b600061300886828701612eda565b935050602061301986828701612eda565b925050604061302a86828701612e25565b9150509250925092565b600080fd5b7f4e487b7100000000000000000000000000000000000000000000000000000000600052604160045260246000fd5b61307182612d98565b810181811067ffffffffffffffff821117156130905761308f613039565b5b80604052505050565b60006130a3612c7a565b90506130af8282613068565b919050565b600067ffffffffffffffff8211156130cf576130ce613039565b5b6130d882612d98565b9050602081019050919050565b82818337600083830152505050565b6000613107613102846130b4565b613099565b90508281526020810184848401111561312357613122613034565b5b61312e8482856130e5565b509392505050565b600082601f83011261314b5761314a612f2f565b5b813561315b8482602086016130f4565b91505092915050565b60006020828403121561317a57613179612c84565b5b600082013567ffffffffffffffff81111561319857613197612c89565b5b6131a484828501613136565b91505092915050565b6000602082840312156131c3576131c2612c84565b5b60006131d184828501612eda565b91505092915050565b6131e381612e04565b82525050565b60006020820190506131fe60008301846131da565b92915050565b61320d81612d13565b811461321857600080fd5b50565b60008135905061322a81613204565b92915050565b6000806040838503121561324757613246612c84565b5b600061325585828601612eda565b92505060206132668582860161321b565b9150509250929050565b600067ffffffffffffffff82111561328b5761328a613039565b5b61329482612d98565b9050602081019050919050565b60006132b46132af84613270565b613099565b9050828152602081018484840111156132d0576132cf613034565b5b6132db8482856130e5565b509392505050565b600082601f8301126132f8576132f7612f2f565b5b81356133088482602086016132a1565b91505092915050565b6000806000806080858703121561332b5761332a612c84565b5b600061333987828801612eda565b945050602061334a87828801612eda565b935050604061335b87828801612e25565b925050606085013567ffffffffffffffff81111561337c5761337b612c89565b5b613388878288016132e3565b91505092959194509250565b600080600080604085870312156133ae576133ad612c84565b5b600085013567ffffffffffffffff8111156133cc576133cb612c89565b5b6133d887828801612f3e565b9450945050602085013567ffffffffffffffff8111156133fb576133fa612c89565b5b61340787828801612f3e565b925092505092959194509250565b6000806040838503121561342c5761342b612c84565b5b600061343a85828601612eda565b925050602061344b85828601612eda565b9150509250929050565b600061346082612e67565b9050919050565b61347081613455565b82525050565b600060208201905061348b6000830184613467565b92915050565b600081519050919050565b600082825260208201905092915050565b6000819050602082019050919050565b600082825260208201905092915050565b60006134d982612d49565b6134e381856134bd565b93506134f3818560208601612d65565b6134fc81612d98565b840191505092915050565b600061351383836134ce565b905092915050565b6000602082019050919050565b600061353382613491565b61353d818561349c565b93508360208202850161354f856134ad565b8060005b8581101561358b578484038952815161356c8582613507565b94506135778361351b565b925060208a01995050600181019050613553565b50829750879550505050505092915050565b600060208201905081810360008301526135b78184613528565b905092915050565b7f4e487b7100000000000000000000000000000000000000000000000000000000600052602260045260246000fd5b6000600282049050600182168061360657607f821691505b6020821081141561361a576136196135bf565b5b50919050565b7f4552433732313a20617070726f76656420717565727920666f72206e6f6e657860008201527f697374656e7420746f6b656e0000000000000000000000000000000000000000602082015250565b600061367c602c83612d54565b915061368782613620565b604082019050919050565b600060208201905081810360008301526136ab8161366f565b9050919050565b7f4552433732313a20617070726f76616c20746f2063757272656e74206f776e6560008201527f7200000000000000000000000000000000000000000000000000000000000000602082015250565b600061370e602183612d54565b9150613719826136b2565b604082019050919050565b6000602082019050818103600083015261373d81613701565b9050919050565b7f4552433732313a20617070726f76652063616c6c6572206973206e6f74206f7760008201527f6e6572206e6f7220617070726f76656420666f7220616c6c0000000000000000602082015250565b60006137a0603883612d54565b91506137ab82613744565b604082019050919050565b600060208201905081810360008301526137cf81613793565b9050919050565b600081905092915050565b60006137ed83856137d6565b93506137fa8385846130e5565b82840190509392505050565b60006138138284866137e1565b91508190509392505050565b7f4552433732313a207472616e736665722063616c6c6572206973206e6f74206f60008201527f776e6572206e6f7220617070726f766564000000000000000000000000000000602082015250565b600061387b603183612d54565b91506138868261381f565b604082019050919050565b600060208201905081810360008301526138aa8161386e565b9050919050565b600081905092915050565b50565b60006138cc6000836138b1565b91506138d7826138bc565b600082019050919050565b60006138ed826138bf565b9150819050919050565b7f4661696c656420746f207769746864726177204d415449430000000000000000600082015250565b600061392d601883612d54565b9150613938826138f7565b602082019050919050565b6000602082019050818103600083015261395c81613920565b9050919050565b7f4552433732313a206f776e657220717565727920666f72206e6f6e657869737460008201527f656e7420746f6b656e0000000000000000000000000000000000000000000000602082015250565b60006139bf602983612d54565b91506139ca82613963565b604082019050919050565b600060208201905081810360008301526139ee816139b2565b9050919050565b7f4552433732313a2062616c616e636520717565727920666f7220746865207a6560008201527f726f206164647265737300000000000000000000000000000000000000000000602082015250565b6000613a51602a83612d54565b9150613a5c826139f5565b604082019050919050565b60006020820190508181036000830152613a8081613a44565b9050919050565b7f45524337323155524953746f726167653a2055524920717565727920666f722060008201527f6e6f6e6578697374656e7420746f6b656e000000000000000000000000000000602082015250565b6000613ae3603183612d54565b9150613aee82613a87565b604082019050919050565b60006020820190508181036000830152613b1281613ad6565b9050919050565b6000613b2482612d49565b613b2e81856137d6565b9350613b3e818560208601612d65565b80840191505092915050565b6000613b568285613b19565b9150613b628284613b19565b91508190509392505050565b6000613b7a8385612d54565b9350613b878385846130e5565b613b9083612d98565b840190509392505050565b60006020820190508181036000830152613bb6818486613b6e565b90509392505050565b7f4e6f7420656e6f756768204d4154494320706169640000000000000000000000600082015250565b6000613bf5601583612d54565b9150613c0082613bbf565b602082019050919050565b60006020820190508181036000830152613c2481613be8565b9050919050565b7f2e00000000000000000000000000000000000000000000000000000000000000600082015250565b6000613c616001836137d6565b9150613c6c82613c2b565b600182019050919050565b60008190508160005260206000209050919050565b60008154613c99816135ee565b613ca381866137d6565b94506001821660008114613cbe5760018114613ccf57613d02565b60ff19831686528186019350613d02565b613cd885613c77565b60005b83811015613cfa57815481890152600182019150602081019050613cdb565b838801955050505b50505092915050565b6000613d188285876137e1565b9150613d2382613c54565b9150613d2f8284613c8c565b9150819050949350505050565b7f3c2f746578743e3c2f7376673e00000000000000000000000000000000000000600082015250565b6000613d72600d836137d6565b9150613d7d82613d3c565b600d82019050919050565b6000613d948285613c8c565b9150613da08284613b19565b9150613dab82613d65565b91508190509392505050565b7f7b226e616d65223a202200000000000000000000000000000000000000000000600082015250565b6000613ded600a836137d6565b9150613df882613db7565b600a82019050919050565b7f222c20226465736372697074696f6e223a202261204c6176697368204e616d6560008201527f205365727669636520646f6d61696e222c2022696d616765223a20226461746160208201527f3a696d6167652f7376672b786d6c3b6261736536342c00000000000000000000604082015250565b6000613e856056836137d6565b9150613e9082613e03565b605682019050919050565b7f222c226c656e677468223a220000000000000000000000000000000000000000600082015250565b6000613ed1600c836137d6565b9150613edc82613e9b565b600c82019050919050565b7f227d000000000000000000000000000000000000000000000000000000000000600082015250565b6000613f1d6002836137d6565b9150613f2882613ee7565b600282019050919050565b6000613f3e82613de0565b9150613f4a8286613b19565b9150613f5582613e78565b9150613f618285613b19565b9150613f6c82613ec4565b9150613f788284613b19565b9150613f8382613f10565b9150819050949350505050565b7f646174613a6170706c69636174696f6e2f6a736f6e3b6261736536342c000000600082015250565b6000613fc6601d836137d6565b9150613fd182613f90565b601d82019050919050565b6000613fe782613fb9565b9150613ff38284613b19565b915081905092915050565b7f4e487b7100000000000000000000000000000000000000000000000000000000600052603260045260246000fd5b7f4e487b7100000000000000000000000000000000000000000000000000000000600052601160045260246000fd5b600061406782612e04565b91507fffffffffffffffffffffffffffffffffffffffffffffffffffffffffffffffff82141561409a5761409961402d565b5b600182019050919050565b7f4552433732313a206f70657261746f7220717565727920666f72206e6f6e657860008201527f697374656e7420746f6b656e0000000000000000000000000000000000000000602082015250565b6000614101602c83612d54565b915061410c826140a5565b604082019050919050565b60006020820190508181036000830152614130816140f4565b9050919050565b7f4552433732313a207472616e736665722066726f6d20696e636f72726563742060008201527f6f776e6572000000000000000000000000000000000000000000000000000000602082015250565b6000614193602583612d54565b915061419e82614137565b604082019050919050565b600060208201905081810360008301526141c281614186565b9050919050565b7f4552433732313a207472616e7366657220746f20746865207a65726f2061646460008201527f7265737300000000000000000000000000000000000000000000000000000000602082015250565b6000614225602483612d54565b9150614230826141c9565b604082019050919050565b6000602082019050818103600083015261425481614218565b9050919050565b600061426682612e04565b915061427183612e04565b9250828210156142845761428361402d565b5b828203905092915050565b600061429a82612e04565b91506142a583612e04565b9250827fffffffffffffffffffffffffffffffffffffffffffffffffffffffffffffffff038211156142da576142d961402d565b5b828201905092915050565b7f4552433732313a20617070726f766520746f2063616c6c657200000000000000600082015250565b600061431b601983612d54565b9150614326826142e5565b602082019050919050565b6000602082019050818103600083015261434a8161430e565b9050919050565b7f4552433732313a207472616e7366657220746f206e6f6e20455243373231526560008201527f63656976657220696d706c656d656e7465720000000000000000000000000000602082015250565b60006143ad603283612d54565b91506143b882614351565b604082019050919050565b600060208201905081810360008301526143dc816143a0565b9050919050565b7f4552433732314d657461646174613a2055524920717565727920666f72206e6f60008201527f6e6578697374656e7420746f6b656e0000000000000000000000000000000000602082015250565b600061443f602f83612d54565b915061444a826143e3565b604082019050919050565b6000602082019050818103600083015261446e81614432565b9050919050565b7f4e487b7100000000000000000000000000000000000000000000000000000000600052601260045260246000fd5b60006144af82612e04565b91506144ba83612e04565b9250826144ca576144c9614475565b5b828204905092915050565b60006144e082612e04565b91506144eb83612e04565b9250826144fb576144fa614475565b5b828206905092915050565b600061451182612e04565b915061451c83612e04565b9250817fffffffffffffffffffffffffffffffffffffffffffffffffffffffffffffffff04831182151516156145555761455461402d565b5b828202905092915050565b7f45524337323155524953746f726167653a2055524920736574206f66206e6f6e60008201527f6578697374656e7420746f6b656e000000000000000000000000000000000000602082015250565b60006145bc602e83612d54565b91506145c782614560565b604082019050919050565b600060208201905081810360008301526145eb816145af565b9050919050565b600081519050919050565b600082825260208201905092915050565b6000614619826145f2565b61462381856145fd565b9350614633818560208601612d65565b61463c81612d98565b840191505092915050565b600060808201905061465c6000830187612e99565b6146696020830186612e99565b61467660408301856131da565b8181036060830152614688818461460e565b905095945050505050565b6000815190506146a281612cba565b92915050565b6000602082840312156146be576146bd612c84565b5b60006146cc84828501614693565b91505092915050565b7f4552433732313a206d696e7420746f20746865207a65726f2061646472657373600082015250565b600061470b602083612d54565b9150614716826146d5565b602082019050919050565b6000602082019050818103600083015261473a816146fe565b9050919050565b7f4552433732313a20746f6b656e20616c7265616479206d696e74656400000000600082015250565b6000614777601c83612d54565b915061478282614741565b602082019050919050565b600060208201905081810360008301526147a68161476a565b905091905056fe0a2d2d2d2d2d2d2d2d2d2d2d2d2d2d2d2d2d2d2d2d2d2d2d2d2d2d2d2d2d2d2d2d2d2d2d2d2d2d2d2d2d2d2d2d2d2d2d2d2d2d2d2d2d2d2d2d2d2d2d2d2d2d2d2d2d2d2d2d2d2d2d2d2d2d2d2d2d2d2d2d2d2d2d2d2d2d2d2d2d2d2d2d2d2d2d2d2d2d2d2d2d2d2d2d2d2d2d2d2d2d2d2d0a4142434445464748494a4b4c4d4e4f505152535455565758595a6162636465666768696a6b6c6d6e6f707172737475767778797a303132333435363738392b2fa2646970667358221220aa7f63ed92e2de65f2e296580a551a03841af674fb480b211f51cfffb24f229f64736f6c634300080a00333c73766720786d6c6e733d22687474703a2f2f7777772e77332e6f72672f323030302f737667222077696474683d2232373022206865696768743d22323730222066696c6c3d226e6f6e65223e3c706174682066696c6c3d2275726c282342292220643d224d302030683237307632373048307a222f3e3c646566733e3c66696c7465722069643d22412220636f6c6f722d696e746572706f6c6174696f6e2d66696c746572733d2273524742222066696c746572556e6974733d227573657253706163654f6e55736522206865696768743d22323730222077696474683d22323730223e3c666544726f70536861646f772064783d2230222064793d22312220737464446576696174696f6e3d22322220666c6f6f642d6f7061636974793d222e323235222077696474683d223230302522206865696768743d2232303025222f3e3c2f66696c7465723e3c2f646566733e3c7061746820643d224d37322e3836332034322e393439632d2e3636382d2e3338372d312e3432362d2e35392d322e3139372d2e3539732d312e3532392e3230342d322e3139372e35396c2d31302e30383120362e3033322d362e383520332e3933342d31302e30383120362e303332632d2e3636382e3338372d312e3432362e35392d322e3139372e3539732d312e3532392d2e3230342d322e3139372d2e35396c2d382e3031332d342e37323161342e353220342e35322030203020312d312e3538392d312e363136632d2e3338342d2e3636352d2e3539342d312e3431382d2e3630382d322e313837762d392e3331632d2e3031332d2e3737352e3138352d312e3533382e3537322d322e32303861342e323520342e323520302030203120312e3632352d312e3539356c372e3838342d342e3539632e3636382d2e33383720312e3432362d2e353920322e3139372d2e353973312e3532392e32303420322e3139372e35396c372e38383420342e353961342e353220342e353220302030203120312e35383920312e363136632e3338342e3636352e35393420312e3431382e36303820322e31383776362e3033326c362e38352d342e303635762d362e303332632e3031332d2e3737352d2e3138352d312e3533382d2e3537322d322e32303861342e323520342e32352030203020302d312e3632352d312e3539354c34312e3435362032342e3539632d2e3636382d2e3338372d312e3432362d2e35392d322e3139372d2e3539732d312e3532392e3230342d322e3139372e35396c2d31342e38363420382e36353561342e323520342e32352030203020302d312e36323520312e353935632d2e3338372e36372d2e35383520312e3433342d2e35373220322e3230387631372e343431632d2e3031332e3737352e31383520312e3533382e35373220322e32303861342e323520342e323520302030203020312e36323520312e3539356c31342e38363420382e363535632e3636382e33383720312e3432362e353920322e3139372e353973312e3532392d2e32303420322e3139372d2e35396c31302e3038312d352e39303120362e38352d342e3036352031302e3038312d352e393031632e3636382d2e33383720312e3432362d2e353920322e3139372d2e353973312e3532392e32303420322e3139372e35396c372e38383420342e353961342e353220342e353220302030203120312e35383920312e363136632e3338342e3636352e35393420312e3431382e36303820322e31383776392e333131632e3031332e3737352d2e31383520312e3533382d2e35373220322e32303861342e323520342e32352030203020312d312e36323520312e3539356c2d372e38383420342e373231632d2e3636382e3338372d312e3432362e35392d322e3139372e3539732d312e3532392d2e3230342d322e3139372d2e35396c2d372e3838342d342e353961342e353220342e35322030203020312d312e3538392d312e363136632d2e3338352d2e3636352d2e3539342d312e3431382d2e3630382d322e313837762d362e3033326c2d362e383520342e30363576362e303332632d2e3031332e3737352e31383520312e3533382e35373220322e32303861342e323520342e323520302030203020312e36323520312e3539356c31342e38363420382e363535632e3636382e33383720312e3432362e353920322e3139372e353973312e3532392d2e32303420322e3139372d2e35396c31342e3836342d382e363535632e3635372d2e33393420312e3230342d2e393520312e3538392d312e363136732e3539342d312e3431382e3630392d322e3138375635352e353338632e3031332d2e3737352d2e3138352d312e3533382d2e3537322d322e32303861342e323520342e32352030203020302d312e3632352d312e3539356c2d31342e3939332d382e3738367a222066696c6c3d2223666666222f3e3c646566733e3c6c696e6561724772616469656e742069643d2242222078313d2230222079313d2230222078323d22323730222079323d2232373022206772616469656e74556e6974733d227573657253706163654f6e557365223e3c73746f702073746f702d636f6c6f723d2223636235656565222f3e3c73746f70206f66667365743d2231222073746f702d636f6c6f723d2223306364376534222073746f702d6f7061636974793d222e3939222f3e3c2f6c696e6561724772616469656e743e3c2f646566733e3c7465787420783d2233322e352220793d223233312220666f6e742d73697a653d223237222066696c6c3d2223666666222066696c7465723d2275726c282341292220666f6e742d66616d696c793d22506c7573204a616b617274612053616e732c44656a6156752053616e732c4e6f746f20436f6c6f7220456d6f6a692c4170706c6520436f6c6f7220456d6f6a692c73616e732d73657269662220666f6e742d7765696768743d22626f6c64223e",
  "linkReferences": {},
  "deployedLinkReferences": {}
}